:100000000C9464000C948C000C948C000C948C0068
:100010000C948C000C948C000C948C000C941B1D84
:100020000C948C000C948C000C948C000C94DC16BA
:100030000C948C000C948C000C948C000C948C0010
:100040000C9479100C948C000C946F0C0C94490C4B
:100050000C948C000C948C000C948C000C948C00F0
:100060000C940D110C948C0000000000240027005B
:100070002A0000000008000201000003040700003D
:1000800000000000000000000000250028002B00F8
:1000900002000000002300260029000404040404D8
:1000A0000404040202020202020303030303030125
:1000B00002040810204080010204081020010204FC
:1000C00008102000992C952811241FBECFEFD8E0EE
:1000D000DEBFCDBF13E0A0E0B1E0EEE5FBE602C07D
:1000E00005900D92AA36B107D9F725E0AAE6B3E04C
:1000F00001C01D92A23EB207E1F710E0C3E6D0E0D6
:1001000004C02197FE010E94A033C236D107C9F76F
:100110000E9499280C94A2350C9400002F923F92D3
:100120004F925F926F927F928F929F92AF92BF9207
:10013000CF92DF92EF92FF920F931F93CF93DF93B3
:10014000CDB7DEB7CD55D1090FB6F894DEBF0FBEDF
:10015000CDBF80911704882309F42CC280911B0421
:10016000882341F082E290E00E940716813011F46A
:100170000C94CF0910921B040E94802E25E0C22E01
:10018000D12CE12CF12CA70196010E944630FB01F5
:10019000EE0FFF1F6E0F7F1FFB01E651FC4F108219
:1001A00080E8818312820E94802EA70196010E941E
:1001B0004630FB01EE0FFF1F6E0F7F1FFB01E65164
:1001C000FC4F10821FEF118312830E94802EA70123
:1001D00096010E944630FB01EE0FFF1F6E0F7F1F3E
:1001E000FB01E651FC4F1083118312820E94802E86
:1001F000A70196010E944630FB01EE0FFF1F6E0F14
:100200007F1FFB01E651FC4F108311821282809107
:1002100045050E94C32362E372E08CE994E00E94EA
:10022000470CC0900A010C2C000CDD08EE08FF08FA
:10023000F7FE0EC06DE28CE994E00E94E20B4427C9
:100240005527BA014C195D096E097F092AE003C0E0
:100250002AE0B701A6018CE994E00E94FE0B6BE353
:1002600072E08CE994E00E94E90B0E940E16609106
:100270000A01643008F053C080E00E94371E6EE32C
:1002800072E086E695E00E94470C60912004709130
:10029000210480912204909123040E94671F6FED36
:1002A00086E695E00E94E20B62E472E086E695E065
:1002B0000E94470C20912004309121044091220497
:1002C0005091230460E070E088EC91E40E94E030FB
:1002D0006B017C0120E030E0A9010E94F531181685
:1002E0001CF4C701B60103C0C701B60190580E94B3
:1002F000BF31ACE9BFEF9B01AC010E94733025E038
:1003000030E040E050E00E944630CA01B9016C592B
:100310007F4F8F4F9F4F80910A010E946F1E609107
:100320000A016150643008F055C080E00E94371E19
:1003300067E472E086E695E00E94470C60910B014D
:1003400070910C0180910D0190910E010E94671F28
:100350006FED86E695E00E94E20B62E472E086E6CD
:1003600095E00E94470C20910B0130910C014091C7
:100370000D0150910E0160E070E088EC91E40E9464
:10038000E0306B017C0120E030E0A9010E94F531F2
:1003900018161CF4C701B60103C0C701B601905876
:1003A0000E94BF31ACE9BFEF9B01AC010E947330EA
:1003B00025E030E040E050E00E944630CA01B9013B
:1003C0006C597F4F8F4F9F4F20910A018FEF820F03
:1003D0000E946F1E60910A016250643008F050C0A4
:1003E00080E00E94371E6BE472E086E695E00E9492
:1003F000470C609104017091050180910601909174
:1004000007010E94671F6FE472E086E695E00E9494
:10041000470C209104013091050140910601509153
:10042000070160E070E088E492E40E94E0306B0134
:100430007C0120E030E0A9010E94F53118161CF47F
:10044000C701B60103C0C701B60190580E94BF3171
:10045000ACE9BFEF9B01AC010E9473302EE130E0AC
:1004600040E050E00E944630CA01B9016C597F4F0C
:100470008F4F9F4F20910A018EEF820F0E946F1EB7
:1004800060910A016350643008F05EC080E00E9411
:10049000371E64E572E086E695E00E94470C2DEC7D
:1004A0003CE445E053E460910001709101018091CA
:1004B0000201909103010E944D310E94671F68E57F
:1004C00072E086E695E00E94470C2DEC3CE445E0A6
:1004D00053E46091000170910101809102019091BB
:1004E00003010E944D319B01AC0160E070E08EE39E
:1004F00094E40E94E0306B017C0120E030E0A9012F
:100500000E94F53118161CF4C701B60103C0C701DB
:10051000B60190580E94BF31ACE9BFEF9B01AC011E
:100520000E94733028E230E040E050E00E94463004
:10053000CA01B9016C597F4F8F4F9F4F20910A011B
:100540008DEF820F0E946F1E60910A01645064302B
:1005500008F029C780E00E94371E6EE572E086E64B
:1005600095E00E94470C0E946D20BC0186E695E054
:100570000E94372069E572E086E695E00E94470C0C
:100580000E946D209C01ACE9BFEF0E942F3220E059
:1005900034E040E050E00E944630CA01B9016C5995
:1005A0007F4F8F4F9F4F20910A018CEF820F0E9447
:1005B0006F1EF9C680911A04882309F491C00E9425
:1005C000002660E081E00E94371E62E672E086E667
:1005D00095E00E94470C61E080E00E94371E609128
:1005E0000901062E000C770B86E695E00E94372065
:1005F00065E772E086E695E00E94470C809109016C
:10060000082E000C990B0E94061C482F50E060E059
:1006100070E02AE086E695E00E94FE0B80911804C7
:10062000909119041AA219A21CA21BA21EA21DA21B
:100630004AE0BE016F5F7F4F0E94D72EBE016F5F01
:100640007F4FCE0181960E94EA1C67E772E0CE01DF
:1006500001960E94061D4DA15EA169A17AA1CE015D
:1006600001960E94701C811104C0CE0101960E9467
:100670009E1C69E772E0CE0101960E94B01C0E94A8
:10068000661ECE0101960E94011DCE0181960E9438
:10069000011D0E949B1689E090E00E94061C8111BA
:1006A00009C063E00E94371E6BE772E086E695E0C2
:1006B0000E94470C80910901813009F074C662E004
:1006C00080E00E94371ECE0101960E941317CE01D2
:1006D00001960E94661ECE0101960E94011D63C60E
:1006E00090916A0381E0892780936A03882309F443
:1006F0004BC68091A0059091A105019721F488E94E
:1007000095E00E94E01A8E010F5D1F4F28E0A801BE
:1007100067EF88E995E00E94EA17D801FE0131965B
:100720004D9150E060E070E041935193619371937B
:10073000E017F107A9F781111DC080E090E0A0EC5F
:10074000BFE78093040190930501A0930601B09345
:10075000070180930B0190930C01A0930D01B093BE
:100760000E018093000190930101A0930201B093C8
:100770000301E8C389809A80AB80BC802C968CAE44
:100780009DAEAEAEBFAE2C978D809E80AF80B884FC
:1007900060968CAE9DAEAEAEBFAE609789849A84F3
:1007A000AB84BC8464968CAE9DAEAEAEBFAE649797
:1007B0004D855E856F857889ACE0440F551F661FB7
:1007C000771FAA95D1F789899A89AB89BC8914E0EA
:1007D000880F991FAA1FBB1F1A95D1F7482B592BB9
:1007E0006A2B7B2B8D899E89AF89B88D04E0B595E6
:1007F000A795979587950A95D1F7842B952BA62BCE
:10080000B72B498D5A8D6B8D7C8D762F652F542F8C
:1008100044270D8D1E8D2F8D38A14A015B01802A42
:10082000912AA22AB32A68968CAE9DAEAEAEBFAE18
:1008300068974091A8055091A90560E070E06C01AF
:100840007D0134E0F594E794D794C7943A95D1F7B5
:10085000C41AD50AE60AF70AE3E0B595A795979575
:100860008795EA95D1F7440F551F661F771F4C01F6
:100870005D01841A950AA60AB70AA5019401A09100
:10088000AA05B091AB050E9470304B015C01ABE052
:10089000B594A79497948794AA95D1F7A701960148
:1008A000C701B6010E94FF319B01AC01BCE0559528
:1008B000479537952795BA95D1F7A091AC05B0919A
:1008C000AD050E947030DC01CB011EE0B595A79507
:1008D000979587951A95D1F775016401C80ED91EB1
:1008E000EA1EFB1EC9AADAAAEBAAFCAAA5E0B0E0A0
:1008F000A70196010E946530DC01CB0180589F4F13
:10090000AF4FBF4F692F7A2F8B2F992787FD9A956D
:100910000E94132F20E030E048EC52E40E944D3159
:1009200060930B0170930C0180930D0190930E0165
:100930008090B4056A968FAE6A979090B50598AE90
:100940008090B6056B968FAE6B979090B70599AE79
:100950008090B80569968FAE69979090B9059DAA69
:100960008090BA056E968FAE6E979090BB052296DA
:100970009FAE22978090BC056D968FAE6D9790903C
:10098000BD0521969FAE21978090BE056C968FAED7
:100990006C979090BF059AAEFF0CCC08DC2C7601CA
:1009A00029A93AA94BA95CA96C2D7C2D8C2D9C2DD5
:1009B000345F41405109610971098109910929A7F1
:1009C0003AA74BA75CA76DA77EA78FA798AB590145
:1009D0006A017B018C010E943E322EAB3FAB239615
:1009E0004FAF239724965FAF249725966FAF259737
:1009F00026967FAF269727968FAF279728969FAF8B
:100A000028973091B1052091B005932F990F990B3C
:100A1000492F592F692F792F892F0E943E320CE0E0
:100A20000E94373319012A013B014C013091B30573
:100A30002091B205932F990F990BAEA8BFA82396CA
:100A4000CFAC23972496DFAC24972596EFAC25975F
:100A50002696FFAC269727960FAD279728961FADB1
:100A60002897492F592F692F792F892F0E943E32BD
:100A700008E00E94503351016201730184010E9419
:100A80006E3370588F4F9F4F2090AE053090AF055A
:100A90005101C12CD12CE12CF12C00E010E00E947E
:100AA0003E3201E20E9450332BAF3CAF4DAF5EAF00
:100AB0006FAF272E382E492EA0E00E94803309F414
:100AC0004CC169962FAD69979DA9990F990BAEA856
:100AD000BFA82396CFAC23972496DFAC2497259606
:100AE000EFAC25972696FFAC269727960FAD279754
:100AF00028961FAD28973DA9492F592F692F792F87
:100B0000892F0E943E322DAB3EAB4FAB552E3B01A1
:100B10004C016B962FAD6B9799AD990F990BA9A4CA
:100B2000BAA4CBA4DCA4EDA4FEA40FA518A939ADEA
:100B3000492F592F692F792F892F0E943E3201E1C9
:100B40000E943733ADA8BEA8CFA8D52C730184016D
:100B50000E946E3359016A017B01582E192F60964D
:100B60004CAD5DAD6EAD7FAD609784E0440F551F19
:100B7000661F771F8A95D1F764968CAD9DADAEAD9B
:100B8000BFAD649724E0B595A795979587952A956D
:100B9000D1F7482B592B6A2B7B2B2C968CAD9DAD16
:100BA000AEADBFAD2C973CE0880F991FAA1FBB1FAD
:100BB0003A95D1F7482B592B6A2B7B2B80E090E09C
:100BC000A0E1B0E0841B950BA60BB70B3C014D01D7
:100BD000990C6608762C43019C01AD01662D762D9B
:100BE000862D962D0FE10E94373339014A01B62F29
:100BF000A72FF82FE92F6A962FAD6A9798AD990F16
:100C0000990B38AD492F592F692F792F892F03E27E
:100C10000E943733052D0E946E3359016A017B0112
:100C20008C019301A4016B2F7A2F8F2F9E2F0E948E
:100C30007733E5E3AE2EFCE0BF2EC12CD12CE12CA6
:100C4000F12C00E010E00E943E32ABACBCACCDAC6D
:100C5000DEACEFACF22C032D142D0E94993229A7A3
:100C60003AA74BA75CA76DA77EA78FA798AB0DE00F
:100C70000E945033322E292E6C962FAD6C979AAD70
:100C8000990F990BA32CB32EC42ED52EE62EF72E3A
:100C9000082F122D3AAD492F592F692F792F892FFF
:100CA0000E943E320E943E3209E10E945033A9A4C4
:100CB000BAA4CBA4DCA4EDA4FEA40FA518A90E949D
:100CC0006E3319012A013B014C016D962FAD6D97D2
:100CD00021969FAD2197990F990B21963FAD2197B2
:100CE000492F592F692F792F892F0E943E3203E116
:100CF0000E94503359016A017B018C019101A201CC
:100D0000B301C4010E946E3308E00E9450335901C0
:100D10006A017B01E82F192F6E962FAD6E972296F0
:100D20009FAD2297990F990B22963FAD2297492F9D
:100D3000592F692F792F892F04E00E9437330E2F06
:100D40000E946E33B901CA010E94112F20E030E0E9
:100D500040E85BE30E94722F04C060E070E080EC2A
:100D60009FE76093000170930101809302019093CB
:100D700003012091C50589A89AA8ABA8BCA83CE2AC
:100D8000931A31E0A30AB1086896CCACDDACEEACA6
:100D9000FFAC68973EE0CC0CDD1CEE1CFF1C3A95C6
:100DA000D1F78091C40540E1849FC0011124322F06
:100DB0003F70832B092E000CAA0BBB0B44E1880F5C
:100DC000991FAA1FBB1F4A95D1F7C81AD90AEA0A68
:100DD000FB0AA091C60550E1A59FD00111242295E0
:100DE0002F70A22BA50194010E947030C61AD70A59
:100DF000E80AF90A80E4D80EE11CF11C6FE0F594D2
:100E0000E794D794C7946A95D1F7A091C305B0E051
:100E10000E9465302B013C017BE0759467945794E8
:100E200047947A95D1F790E8590E611C711CA091F6
:100E3000C7050A2E000CBB0B0E947030EAE09595A6
:100E4000879577956795EA95D1F7A30192010E945E
:100E5000FF31DC01CB01FAE0B595A7959795879511
:100E6000FA95D1F79C01AD01405E5F4FA091C1059D
:100E7000B091C2050E947030DC01CB01905EAF4F93
:100E8000BF4FBC01CD01AEE09595879577956795ED
:100E9000AA95D1F7A70196010E94FF316B017C0151
:100EA000BFE09595879577956795BA95D1F79B01A2
:100EB000AC010E94FF319B01AC0117E055954795AD
:100EC000379527951A95D1F7A091C005B0E00E94FB
:100ED0006530DC01CB0104E0B595A7959795879522
:100EE0000A95D1F746015701881A990AAA0ABB0A3E
:100EF000D501C401B7FE03C080E090E0DC01813081
:100F00009105A10529E1B20724F080E090E0A0E07E
:100F1000B9E1BC01CD012CE0959587957795679552
:100F20002A95D1F70E94112F20E030E040E85AE3E3
:100F30000E94722F60930401709305018093060153
:100F40009093070160E080E00E94371E6DE872E038
:100F500086E695E00E94470C82E595E00E94661EB9
:100F600081E290E00E94061C81113CC062E00E9478
:100F7000371E66E086E695E00E94071162E972E09E
:100F800086E695E00E94470C60910B0170910C0180
:100F900080910D0190910E010E94671F6FED86E612
:100FA00095E00E94E20B61E080E00E94371E66E05F
:100FB00086E695E00E9407116EE372E086E695E012
:100FC0000E94470C609120047091210480912204BA
:100FD000909123040E94671F6FED86E695E00E94C2
:100FE000E20B24C061E080E00E94371E66E086E6E6
:100FF00095E00E94071166E972E086E695E00E949E
:10100000470C60911C0470911D0480911E04909106
:101010001F040E94671F6FED86E695E00E94E20BB9
:101020006AE972E086E695E00E94470C81E290E072
:101030000E94061C813021F462E080E00E94371E8D
:1010400081E290E00E94061C811103C063E00E94CF
:10105000371E67E086E695E00E94071181E290E086
:101060000E94061C813031F466E972E086E695E064
:101070000E94470C81E290E00E94061C811106C08C
:1010800062E972E086E695E00E94470C60910401F7
:101090007091050180910601909107010E94671FE0
:1010A0006CE972E086E695E00E94470C61E08BE017
:1010B0000E94371E66E086E695E00E9407112091A7
:1010C0001C0430911D0440911E0450911F0460E0E7
:1010D00070E088EC91E40E94E0306B017C0120E03C
:1010E00030E0A9010E94F53118161CF4C701B601C1
:1010F00003C0C701B60190580E94BF31ACE9BFEFF1
:101100009B01AC010E94733025E030E040E050E0EC
:101110000E944630CA01B9016C597F4F8F4F9F4FD3
:1011200081E00E946F1E62E08BE00E94371E67E044
:1011300086E695E00E940711209104013091050197
:10114000409106015091070160E070E088E492E46C
:101150000E94E0306B017C0120E030E0A9010E9498
:10116000F53118161CF4C701B60103C0C701B6015A
:1011700090580E94BF31ACE9BFEF9B01AC010E94C7
:1011800073302EE130E040E050E00E944630CA016A
:10119000B9016C597F4F8F4F9F4F82E00E946F1EA5
:1011A00063E08BE00E94371E63E286E695E00E94D2
:1011B00007112DEC3CE445E053E46091000170918F
:1011C000010180910201909103010E944D319B0128
:1011D000AC0160E070E08EE394E40E94E0306B01CB
:1011E0007C0120E030E0A9010E94F53118161CF4C2
:1011F000C701B60103C0C701B60190580E94BF31B4
:10120000ACE9BFEF9B01AC010E94733028E230E0F3
:1012100040E050E00E944630CA01B9016C597F4F4E
:101220008F4F9F4F83E00E946F1EC0900401D090AB
:101230000501E0900601F090070120E030E044E372
:1012400052E4C701B6010E94F531181684F420E07B
:1012500030E040E752E4C701B6010E940C2F87FF3F
:1012600006C01092EA0380E88093EB0305C08FEF7D
:101270008093EA031092EB031092EC03C0900B01F1
:10128000D0900C01E0900D01F0900E0120E030E0D4
:1012900048EB51E4C701B6010E94F531181684F4F9
:1012A00020E030E048ED51E4C701B6010E940C2F68
:1012B00087FF06C01092ED0380E88093EE0305C01F
:1012C0008FEF8093ED031092EE031092EF03C09026
:1012D0002004D0902104E0902204F090230420E028
:1012E00030E048EB51E4C701B6010E94F531181611
:1012F00084F420E030E048ED51E4C701B6010E94DB
:101300000C2F87FF06C01092F00380E88093F10352
:1013100005C08FEF8093F0031092F1031092F20357
:101320002DEC3CE445E053E4609100017091010133
:1013300080910201909103010E944D316B017C016B
:1013400020E030E044E354E40E94F531181684F4C0
:1013500020E030E040E254E4C701B6010E940C2FC7
:1013600087FF06C01092F30380E88093F40305C062
:101370008FEF8093F3031092F4031092F5038091A2
:1013800045050E94C3230FC060E081E10E94371E23
:1013900064E972E086E695E00E94470C04C00E9472
:1013A00000260C94BA00C35ADF4F0FB6F894DEBF84
:1013B0000FBECDBFDF91CF911F910F91FF90EF90A6
:1013C000DF90CF90BF90AF909F908F907F906F9065
:1013D0005F904F903F902F900895CF92DF92EF92C1
:1013E000FF920F931F93CF93DF936C017A018B01D0
:1013F000C0E0D0E0CE15DF0581F0D8016D918D0100
:10140000D601ED91FC910190F081E02DC601099586
:10141000892B11F02196EECF7E01C701DF91CF918C
:101420001F910F91FF90EF90DF90CF900895FC01F6
:10143000538D448D252F30E0842F90E0821B930B39
:10144000541710F0CF96089501970895FC01918DDF
:10145000828D981761F0828DDF01A80FB11D5D9616
:101460008C91928D9F5F9F73928F90E008958FEF84
:101470009FEF0895FC01918D828D981731F0828D38
:10148000E80FF11D858D90E008958FEF9FEF08958F
:10149000FC01918D228D892F90E0805C9F4F821BF3
:1014A00091098F73992708958CE994E00E94480A66
:1014B00021E0892B09F420E0822F0895FC01848D1E
:1014C000DF01A80FB11DA35ABF4F2C91848D90E06E
:1014D00001968F739927848FA689B7892C93A08949
:1014E000B1898C91837080648C93938D848D9813D3
:1014F00006C00288F389E02D80818F7D8083089566
:10150000EF92FF920F931F93CF93DF93EC0181E053
:10151000888F9B8D8C8D981305C0E889F98980810F
:1015200085FD26C0F62E0B8D10E00F5F1F4F0F7349
:101530001127E02E8C8DE8120CC00FB607FCFACFF5
:10154000E889F989808185FFF5CFCE010E945E0A86
:10155000F1CF8B8DFE01E80FF11DE35AFF4FF082B2
:101560009FB7F8940B8FEA89FB89808180620AC05B
:101570009FB7F894EE89FF896083E889F9898081B3
:101580008370806480839FBF81E090E0DF91CF9182
:101590001F910F91FF90EF900895CF93DF93EC018F
:1015A000888D8823C9F0EA89FB89808185FD05C083
:1015B000A889B9898C9186FD0FC00FB607FCF5CFBD
:1015C000808185FFF2CFA889B9898C9185FFEDCF05
:1015D000CE010E945E0AE7CFDF91CF91089580E0AF
:1015E00090E0892B29F00E94540A81110C9400008C
:1015F0000895833081F028F4813099F08230A1F091
:1016000008958730A9F08830B9F08430D1F4809102
:1016100080008F7D03C0809180008F778093800051
:10162000089584B58F7702C084B58F7D84BD0895F9
:101630008091B0008F7703C08091B0008F7D809340
:10164000B000089585ED8093BC008091BC0084FDBE
:10165000FCCF10926B0408954091AF03262F30E029
:10166000240F311D21323105DCF420916B0424302C
:10167000C9F4FC0180E090E0861758F43091AF0384
:101680002191DC01A157BC4FA30FB11D2C930196F2
:10169000F3CF8091AF03680F6093AF0380E00895AC
:1016A00081E0089582E00895089508950895E091F5
:1016B000440480914304E81730F4F0E0E559FC4F0E
:1016C000808190E008958FEF9FEF089590914404FA
:1016D00080914304981750F4E92FF0E0E559FC4F4E
:1016E000208130E09F5F9093440402C02FEF3FEFD2
:1016F000C90108958091430490E020914404821B25
:1017000091090895CF92DF92EF92FF920F931F936A
:10171000CF93DF937C01CB018A0120916C042223BB
:1017200089F0EB016B01C40ED51ECC15DD0569F007
:101730006991D701ED91FC910190F081E02DC701F5
:101740000995F3CF642F0E942C0BC801DF91CF9134
:101750001F910F91FF90EF90DF90CF900895CF935E
:10176000DF931F92CDB7DEB7698320916C042223EB
:10177000D1F020918F04203240F021E030E0FC01D4
:101780003383228380E090E015C080916D04E82FC0
:10179000F0E0E259FB4F998190838F5F80936D0455
:1017A00080938F0405C061E0CE0101960E942C0B4E
:1017B00081E090E00F90DF91CF910895089580E04F
:1017C00090E00895DC01ED91FC910190F081E02D15
:1017D00009946115710579F0FB0101900020E9F78A
:1017E0003197AF01461B570BDC01ED91FC91028054
:1017F000F381E02D099480E090E008958F929F920C
:10180000AF92BF92EF92FF920F931F93CF93DF930C
:10181000CDB7DEB7A1970FB6F894DEBF0FBECDBF30
:101820007C01FA01CB0119A2223008F42AE08E01D2
:101830000F5D1F4F822E912CA12CB12CBF01A50151
:1018400094010E94AF30F901CA01015011096A30B8
:1018500014F4605D01C0695CD8016C93232B242BC8
:10186000252B61F7B801C7010E94E90BA1960FB6BD
:10187000F894DEBF0FBECDBFDF91CF911F910F91C6
:10188000FF90EF90BF90AF909F908F9008950C9431
:10189000E90B1F920F920FB60F9211242F933F93D3
:1018A0004F935F936F937F938F939F93AF93BF9368
:1018B000EF93FF938CE994E00E945E0AFF91EF9111
:1018C000BF91AF919F918F917F916F915F914F9158
:1018D0003F912F910F900FBE0F901F9018951F9260
:1018E0000F920FB60F9211242F938F939F93EF9324
:1018F000FF93E091AC04F091AD048081E091B204DB
:10190000F091B30482FD12C090818091B5048F5F85
:101910008F732091B604821751F0E091B504F0E086
:10192000E456FB4F958F8093B50401C08081FF91F1
:10193000EF919F918F912F910F900FBE0F901F905D
:101940001895CF93DF93282F30E0F901EE58FF4F21
:101950008491F901E155FF4FD491F901E556FF4F0C
:10196000C491CC2391F081110E94F90AEC2FF0E090
:10197000EE0FFF1FEF56FF4FA591B491EC91ED23B1
:1019800081E090E021F480E002C080E090E0DF910F
:10199000CF9108951F93CF93DF93282F30E0F90163
:1019A000EE58FF4F8491F901E155FF4FD491F901B1
:1019B000E556FF4FC491CC23C1F0162F81110E9430
:1019C000F90AEC2FF0E0EE0FFF1FEA57FF4FA59149
:1019D000B4919FB7F894111104C08C91D095D8237D
:1019E00002C0EC91DE2BDC939FBFDF91CF911F9162
:1019F0000895CF93DF9390E0FC01E155FF4F2491D0
:101A0000FC01E556FF4F8491882361F190E0880F37
:101A1000991FFC01E859FF4FC591D491FC01EA5789
:101A2000FF4FA591B491611109C09FB7F8948881C7
:101A3000209582238883EC912E230BC0623061F4C1
:101A40009FB7F8948881322F309583238883EC9157
:101A50002E2B2C939FBF06C08FB7F894E8812E2BB6
:101A600028838FBFDF91CF9108954F925F926F923D
:101A70007F928F929F92AF92BF92CF92DF92EF921E
:101A8000FF920F931F93CF93DF9300D000D01F924C
:101A9000CDB7DEB78B0129013A0190910801891772
:101AA00021F09F3F09F045C205C0E0E9F0E0249134
:101AB0002D837CC080930801E0E9F0E094919D8340
:101AC0009F3F09F436C2913009F449C058F1923071
:101AD00009F06CC01092B0001092B1009091B0006B
:101AE00092609093B0009091B10091609093B1009A
:101AF000282F30E0F901E556FF4FE491F0E0EE0FBA
:101B0000FF1FEA57FF4F459154915093E4034093D0
:101B1000E303F901E155FF4FE491E093E50392E01F
:101B20009D8303C214BC15BC94B5926094BD95B559
:101B3000916095BD282F30E0F901E556FF4FE49103
:101B4000F0E0EE0FFF1FEA57FF4F45915491F90166
:101B5000E155FF4FE491E093D8031D82E6C1109256
:101B60008000109281009091810098609093810094
:101B700090918100916090938100282F30E0F901CD
:101B8000E556FF4FE491F0E0EE0FFF1FEA57FF4FDD
:101B900045915491F901E155FF4FE491E093D7034A
:101BA00061E00E94F90C21E02D8389C02D8127FD81
:101BB000C0C161E00E94F90C8D818D7F09F07FC06A
:101BC0004801A12CB12C60E072E18AE790E0A50108
:101BD00094010E94463029833A834B835C836901D8
:101BE0007A0181E0C81AD108E108F1089FEFC9160F
:101BF000D104E104F10409F008F44EC060E472E499
:101C00008FE090E0A50194010E94463069017A01BD
:101C100081E0C81AD108E108F1089D81923009F5E8
:101C20002FEFC216D104E104F10409F008F444C115
:101C300060E970ED83E090E0A50194010E944630D8
:101C400069017A0181E0C81AD108E108F1089FEF23
:101C5000C916D104E104F10411F008F0BAC083E020
:101C600027C02FEFC216D104E104F104B9F0B0F09F
:101C700068E478EE81E090E0A50194010E9446308E
:101C800069017A0181E0C81AD108E108F1089D8153
:101C9000992309F413C1DCC081E001C082E09D8179
:101CA000911106C095B5987F892B85BD44C085E00C
:101CB0009091B100987F892B8093B1003CC048017E
:101CC000A12CB12C60E072E18AE790E0A5019401BB
:101CD0000E94463069017A0181E0C81AD108E10802
:101CE000F108C114D10491E0E906F10488F068E438
:101CF00078EE81E090E0A50194010E9446306901F0
:101D00007A0181E0C81AD108E108F10883E001C036
:101D100081E09D81913079F490918100987F892BA9
:101D200080938100411451046104710449F42FEF40
:101D30003FEFA9012CC0411451046104710471F0FA
:101D4000D801AA0FBB1FA30192010E94653028EEA3
:101D500033E040E050E00E94AF3003C02FEF3FEF90
:101D6000A9018D81813099F0823019F18111E1C092
:101D7000C7BC2093DD033093DE034093DF03509311
:101D8000E00380916E00826080936E00D2C0D0929A
:101D90008900C09288002093D9033093DA034093DE
:101DA000DB035093DC0380916F00826080936F00AF
:101DB000C0C0C092B3002093E6033093E703409382
:101DC000E8035093E9038091700082608093700073
:101DD000B0C068E478EE81E090E0A50194010E9433
:101DE000463069017A0191E0C91AD108E108F10889
:101DF0002FEFC216D104E104F10441F138F164E29D
:101E000074EF80E090E0A50194010E9446306901E2
:101E10007A0181E0C81AD108E108F1089FEFC916DC
:101E2000D104E104F10409F008F441CF62E17AE75A
:101E300080E090E0A50194010E94463069017A019A
:101E400081E0C81AD108E108F10819C084E030CF58
:101E50002FEFC216D104E104F10409F008F463C0C5
:101E600062E17AE780E090E0A50194010E944630AB
:101E700069017A0191E0C91AD108E108F1088FEFF0
:101E8000C816D104E104F104A9F0A0F089819A8177
:101E9000AB81BC812AE0B595A795979587952A9542
:101EA000D1F76C017D0121E0C21AD108E108F108E7
:101EB00087E0FECE86E0FCCE82E0FACE8FEFC81639
:101EC000D104E104F10469F160F162E17AE780E0B4
:101ED00090E0A50194010E94463069017A0191E0E9
:101EE000C91AD108E108F1082FEFC216D104E104A4
:101EF000F104A9F0A0F089819A81AB81BC813AE01C
:101F0000B595A795979587953A95D1F76C017D0181
:101F100021E0C21AD108E108F10885E0C3CE84E0CF
:101F2000C1CE83E0BFCE84E0BACE61E00E94F90C5E
:101F300047CE0F900F900F900F900F90DF91CF91A1
:101F40001F910F91FF90EF90DF90CF90BF90AF90D7
:101F50009F908F907F906F905F904F9008951F9308
:101F6000CF93DF93182FEB0161E00E94F90C2097CB
:101F700011F460E004C0CF3FD10539F461E0812F56
:101F8000DF91CF911F910C94CA0CE12FF0E0EE5835
:101F9000FF4FE491E330F9F048F4E130B9F0E2307A
:101FA000A1F584B5806284BDC8BD34C0E730E9F0D6
:101FB000E83019F1E43049F5809180008062809327
:101FC0008000D0938B00C0938A0024C084B58068C1
:101FD00084BDC7BD1FC08091800080688093800051
:101FE000D0938900C093880015C08091B0008068AC
:101FF0008093B000C093B3000DC08091B0008062A8
:102000008093B000C093B40005C0C038D1050CF077
:10201000B5CFAFCFDF91CF911F9108953FB7F8941F
:102020008091D3039091D403A091D503B091D603AE
:1020300026B5A89B05C02F3F19F00196A11DB11D23
:102040003FBFBA2FA92F982F8827820F911DA11D5E
:10205000B11DBC01CD0142E0660F771F881F991F9B
:102060004A95D1F708958F929F92AF92BF92CF92E7
:10207000DF92EF92FF926B017C010E940E104B01E8
:102080005C01C114D104E104F104F1F00E940E10CE
:10209000DC01CB0188199909AA09BB09883E934044
:1020A000A105B10570F321E0C21AD108E108F108D9
:1020B00088EE880E83E0981EA11CB11CC114D104C7
:1020C000E104F10419F7DDCFFF90EF90DF90CF909E
:1020D000BF90AF909F908F9008952FB7F894609124
:1020E0008B0370918C0380918D0390918E032FBF91
:1020F00008951F920F920FB60F9211242F933F93C2
:102100008F939F93AF93BF9380918B0390918C0398
:10211000A0918D03B0918E033091D20323E0230F61
:102120002D3720F40196A11DB11D05C026E8230F0F
:102130000296A11DB11D2093D20380938B0390932F
:102140008C03A0938D03B0938E038091D303909161
:10215000D403A091D503B091D6030196A11DB11D62
:102160008093D3039093D403A093D503B093D60365
:10217000BF91AF919F918F913F912F910F900FBE83
:102180000F901F901895FC01248131E030936C046E
:1021900020938E0410926D0410928F048385682B17
:1021A00089E395E00E94AF0B81E00C9484250F93A6
:1021B0001F93CF938C01C62F0E94C3106C2F6460B5
:1021C000C8010E94C3106C2F6B7FC8010E94C3100E
:1021D00083EC90E00197F1F7CF911F910F91089553
:1021E0000F931F93CF93DF938C01C62FD42F607F63
:1021F000642B0E94D71080E1C89FB00111246D2B81
:10220000C801DF91CF911F910F910C94D71041E03D
:102210000E94F01081E090E008951F920F920FB697
:102220000F9211242F933F934F935F936F937F935C
:102230008F939F93AF93BF93EF93FF938091B900D8
:10224000887F803609F49CC068F5883209F45BC049
:1022500090F4803109F454C038F4882309F4F6C0AE
:10226000883009F44DC0F6C0883109F44CC0803282
:1022700009F45DC0EFC0803409F468C048F48033CD
:1022800009F455C0883309F0E5C080936904D8C0CB
:10229000803509F44FC0883509F45DC0883409F0F1
:1022A000D9C0D6C0883909F4C7C0A8F4883709F462
:1022B00067C038F4883609F463C0803709F460C019
:1022C000C9C0883809F4B8C0803909F45FC08038C3
:1022D00009F0C0C05BC0803B09F486C038F4803A86
:1022E00009F466C0883A09F47FC0B4C0803C09F4A0
:1022F000A7C0883C09F4A4C0883B09F48AC0AAC0DE
:102300008091460410C090916804809167049817EA
:1023100070F5E091680481E08E0F80936804F0E02E
:10232000E95BFB4F80818093BB0085EC86C0809386
:1023300069048EC0E091680481E08E0F8093680488
:102340008091BB00F0E0E95BFB4F808390916804D3
:10235000809167046EC0E091680481E08E0F8093E5
:1023600068048091BB00F0E0E95BFB4F80838091C3
:102370006A0481116DC081E08093450484EA61C0E4
:1023800083E080936B041092D103CFCF8091D1036F
:10239000803208F051C0E091D10381E08E0F80932C
:1023A000D1038091BB00F0E0EF54FC4F8083BDCFA0
:1023B00085EC8093BC0010926B048091D103803235
:1023C00030F4E091D103F0E0EF54FC4F10826091C3
:1023D000D10370E0E0913F04F091400481EB93E081
:1023E00009951092D10336C084E080936B0410925B
:1023F000B0031092AF03E0914104F09142040995BB
:102400008091AF03811105C081E08093AF031092EA
:102410008F03E091B00381E08E0F8093B003F0E072
:10242000E157FC4F80818093BB009091B003809175
:10243000AF03981708F479CF85E88093BC000AC0F1
:1024400085EC8093BC0010926B0404C01092690468
:102450000E94220BFF91EF91BF91AF919F918F91BD
:102460007F916F915F914F913F912F910F900FBE90
:102470000F901F90189580E090E00895FC018585ED
:1024800096850895CF93DF9300D000D000D0CDB7CC
:10249000DEB7AB011C821D821E82DC01ED91FC9136
:1024A0000190F081E02D19821A821B829E012F5F1C
:1024B0003F4FBE016C5F7F4F099526960FB6F8948B
:1024C000DEBF0FBECDBFDF91CF910895DC011C961A
:1024D000ED91FC911D97208116968C91922F982357
:1024E00081E009F480E00895FC01A085B185868132
:1024F0009C91611109C0892B8C93A089B1899C9111
:1025000086818095892308C0809589238C93A08932
:10251000B1899C918681892B8C930895FC01A285B9
:10252000B38587819C9161110CC0892B8C93A28902
:10253000B3899C918781809589238C9320E63AEE1C
:1025400014C0809589238C93A289B3899C9187813B
:10255000892B8C93A685B785978120E63AEE8C91DE
:10256000892319F42115310529F481E0232B29F45D
:1025700080E0089521503109F2CF089520E4629F50
:10258000C001112484688093BC0081E69AEE2091FA
:10259000BC0027FD02C00197D1F78091B900887F68
:1025A000803511F4611109C08091B900887F8835A8
:1025B00011F4662311F080E008958091BB00089526
:1025C0006093BB0084E88093BC0081E69AEE209182
:1025D000BC0027FD02C00197D1F79091B900987F08
:1025E00081E0983209F080E00895660F640F6093EF
:1025F000BB0084E88093BC0081E69AEE2091BC0089
:1026000027FD02C00197D1F78091B900887F8034FF
:1026100021F4442311F081E008959091B900987F4E
:10262000983119F481E08427089580E0089584E9C1
:102630008093BC0081E69AEE2091BC0024FD02C08C
:102640000197D1F78BE490E00197F1F7089584EAC0
:102650008093BC0081E69AEE2091BC0027FD02C069
:102660000197D1F79091B900987F81E0903109F0FE
:1026700080E0089584EA8093BC0081E69AEE209180
:10268000BC0027FD02C00197D1F79091B900987F57
:1026900081E0983009F080E008951F93CF93DF9395
:1026A000EC01162FE881F9810688F789E02D09955C
:1026B000882369F0E881F981048CF58DE02D40E0F4
:1026C000612FCE010995882321F012E003C010E0AC
:1026D00001C011E0E881F981028CF38DE02DCE017B
:1026E000099581E0123009F080E0DF91CF911F91D0
:1026F000089583E00895DF92EF92FF920F931F9366
:10270000CF93DF93EC01F62ED42E152F022FE88104
:10271000F9810688F789E02D09958823F9F0E88189
:10272000F981048CF58DE02D40E06F2DCE010995E7
:102730008823B1F0ED2CF12E12E0002391F0F70187
:1027400061917F01E881F981068CF78DE02DCE0142
:102750000995811101C010E00150EFCF10E001C0D8
:1027600011E0E881F981028CF38DE02DCE0109950D
:1027700081E0123009F080E0DF91CF911F910F913D
:10278000FF90EF90DF900895DF92EF92FF920F930A
:102790001F93CF93DF93EC01E62EF42ED22E132F4E
:1027A000E881F9810688F789E02D0995882349F1A8
:1027B000E881F981048CF58DE02D40E06E2DCE018D
:1027C0000995882301F1E881F981068CF78DE02DC8
:1027D0006F2DCE0109958823C1F0ED2CF12E13E069
:1027E0000023A1F0F70161917F01E881F981068C56
:1027F000F78DE02DCE010995811101C010E0015047
:10280000EFCF10E003C011E001C012E0E881F981D0
:10281000028CF38DE02DCE01099581E0133009F093
:1028200080E0DF91CF911F910F91FF90EF90DF90AB
:102830000895EF92FF920F931F93CF93DF93EC01D4
:10284000162F7A01022FE881F9810688F789E02D99
:102850000995882339F1E881F981048CF58DE02D03
:1028600041E0612FCE0109958823F1F012E00023A9
:10287000E1F061E0023008F460E0E881F98100A055
:10288000F1A1E02DCE010995F70181937F0101505F
:102890008091B900002321F080FFE9CF10E0E7CF5D
:1028A00080FF03C010E001C011E0E881F981028CD3
:1028B000F38DE02DCE01099581E0123009F080E022
:1028C000DF91CF911F910F91FF90EF900895DF92CC
:1028D000EF92FF920F931F93CF93DF93EC01162F8C
:1028E000D42E7901E881F9810688F789E02D0995D0
:1028F000882309F445C0E881F981048CF58DE02D29
:1029000040E0612FCE0109958823E1F1E881F9814A
:10291000068CF78DE02D6D2DCE0109958823A1F150
:10292000E881F981008CF18DE02DCE010995882395
:1029300069F1E881F981048CF58DE02D41E0612F8A
:10294000CE010995882321F115E0002311F161E002
:10295000023008F460E0E881F98100A0F1A1E02DE7
:10296000CE010995F70181937F0101508091B90053
:10297000002321F080FFE9CF10E0E7CF80FF09C0FE
:1029800010E007C011E005C012E003C013E001C071
:1029900014E0E881F981028CF38DE02DCE010995D8
:1029A00081E0153009F080E0DF91CF911F910F9108
:1029B000FF90EF90DF900895CF93DF931F92CDB7F4
:1029C000DEB74983DC01ED91FC910088F189E02DAF
:1029D00021E0AE014F5F5F4F09950F90DF91CF91DE
:1029E00008950F93CF93DF931F92CDB7DEB729835E
:1029F000DC01ED91FC910484F585E02D01E09E0160
:102A00002F5F3F4F09950F90DF91CF910F91089560
:102A10000F931F93CF93DF93EC01062F142FE881C0
:102A2000F9810280F381E02D09958DA3FE01E00F6D
:102A3000F11D968D292F20952823122B282F292B25
:102A4000212347896E89CE010296DF91CF911F9194
:102A50000F910C94F114CF93DF931F92CDB7DEB793
:102A60001982DC01ED91FC910684F785E02D21E0CF
:102A7000AE014F5F5F4F099589810F90DF91CF9134
:102A800008950F93CF93DF931F92CDB7DEB71982CE
:102A9000DC01ED91FC910284F385E02D01E09E01C3
:102AA0002F5F3F4F099589810F90DF91CF910F9153
:102AB00008950F931F93CF93DF93EC01162F61E0DE
:102AC00070E080E090E00E943310CE01810F911DF4
:102AD0008C01FC0147896E89CE0102960E94411546
:102AE000F801968D8923DF91CF911F910F91089561
:102AF000CF92DF92EF92FF92CF93DF93EC016A01C6
:102B00007B0160E08A810E94F90C61E08A810E9469
:102B1000CA0C60E08B810E94F90C61E08B810E94FD
:102B2000CA0CA8EEB3E0A70196010E9465309B0194
:102B3000AC0160E074E284EF90E00E94AF30DA0113
:102B4000C9014097A109B109B695A79597958795B1
:102B50008093B8008091B8008A3018F48AE080939E
:102B6000B8008091B9008C7F8093B900DF91CF913C
:102B7000FF90EF90DF90CF9008950F931F93CF9326
:102B8000DF93EC018C010E5F1F4F44E650E060E0E4
:102B900070E0C8010E94781542E06E89C8010E9469
:102BA00041158DA386FF07C0282F2F7B42E06E8939
:102BB000C8010E94F1144EE06E89C8010E944115BF
:102BC0008DA3982F9F7D39F0282F20724EE06E89BB
:102BD000C8010E94F1144FE06E89C8010E9441159E
:102BE0008DA3982F937811F483FD0CC08477282F40
:102BF00028604FE06E89C801DF91CF911F910F913E
:102C00000C94F114DF91CF911F910F910895F999D0
:102C1000FECF92BD81BDF89A80B50895CF93DF9322
:102C2000CDB7DEB7C054D1090FB6F894DEBF0FBEE2
:102C3000CDBF88E0EAE1F1E0DE01119601900D924E
:102C40008A95E1F788E0E2E2F1E0DE011996019071
:102C50000D928A95E1F788E0EAE2F1E0DE01519613
:102C600001900D928A95E1F788E0E2E3F1E0DE0160
:102C7000599601900D928A95E1F788E0EAE3F1E038
:102C8000DE01919601900D928A95E1F788E0E2E4E9
:102C9000F1E0DE01999601900D928A95E1F788E0C6
:102CA000EAE4F1E0DE01D19601900D928A95E1F718
:102CB00088E0E2E5F1E0DE01D99601900D928A9577
:102CC000E1F7BE016F5C7F4F86E00E94E025BE0108
:102CD000675C7F4F87E00E94E025BE01675F7F4F02
:102CE00080E00E94E025BE01675D7F4F81E00E9489
:102CF000E025BE016F5F7F4F82E00E94E025BE01AC
:102D00006F5E7F4F83E00E94E025BE01675E7F4FCC
:102D100084E00E94E025BE016F5D7F4F85E00E9448
:102D2000E025C05CDF4F0FB6F894DEBF0FBECDBF0D
:102D3000DF91CF910895CF92DF92EF92FF92CF93E0
:102D4000DF9388E090E00E940716C82F86E090E0AD
:102D50000E940716D82F2C2F30E0AEEFB0E00E9473
:102D6000D1302AE0C22ED12CE12CF12CA701960102
:102D70000E944630B9018D2F0E94AF0F87E090E08E
:102D80000E940716C82F85E090E00E940716D82FF2
:102D90002C2F30E0AEEFB0E00E94D130A7019601B9
:102DA0000E944630B9018D2FDF91CF91FF90EF90B7
:102DB000DF90CF900C94AF0F1F920F920FB60F922F
:102DC00011242F933F934F935F936F937F938F9330
:102DD0009F93AF93BF93CF93DF93EF93FF9383E2E0
:102DE00090E00E9407160E94A10CEC0183E290E0A3
:102DF0000E94071661E0CD2B09F060E00E94CA0C2A
:102E0000FF91EF91DF91CF91BF91AF919F918F9102
:102E10007F916F915F914F913F912F910F900FBED6
:102E20000F901F9018959F92AF92BF92CF92DF9212
:102E3000EF92FF920F931F93CF93DF93CDB7DEB73F
:102E40002C970FB6F894DEBF0FBECDBF8C016DE39B
:102E500072E00E94061D88E0C82ED12CE12CF12CD6
:102E6000A12CB12C9924939490926C04C0928E045E
:102E700010926D0410928F0481E00E9484258111CC
:102E80003BC02AE0B701A6018CE994E00E94FE0B4A
:102E90006C2DCE0101960E94572518861F821A8636
:102EA00019861C861B8669817A816115710531F04E
:102EB0004D815E81CE0107960E94C91C6EE972E0C9
:102EC000CE0107960E94B01CFC01448155816081AF
:102ED0007181C8010E94701CCE0107960E94011DDD
:102EE000CE0101960E94011D80EA92E00E944425D5
:102EF000FFEFAF1ABF0A3EC08430E1F52AE0B70108
:102F0000A6018CE994E00E94FE0B6BE372E08CE971
:102F100094E00E94E90B6C2DCE0107960E94572584
:102F200061EA72E0CE0101960E94061D4B855C8528
:102F30006F817885CE0101960E94701C811104C0BA
:102F4000CE0101960E949E1C6EE972E0CE010196B0
:102F50000E94B01CFC014481558160817181C801CF
:102F60000E94701CCE0101960E94011DCE010796A1
:102F70000E94011DFFEFCF1ADF0AEF0AFF0A8FE759
:102F8000C816D104E104F10409F06ECFAB2831F486
:102F900060ED72E0C8010E94EA1C04C083EA92E07E
:102FA0000E944425C8012C960FB6F894DEBF0FBED0
:102FB000CDBFDF91CF911F910F91FF90EF90DF90E8
:102FC000CF90BF90AF909F90089580E991E00895D1
:102FD000209A0895CF92DF92EF92FF920F931F9362
:102FE000CF937C018A01C22FFC0184A991E09093C8
:102FF0006C0480938E0410926D0410928F0489E308
:1030000095E00E94AF0B81E00E94842580916B04C3
:103010008111FCCFF70194A98C2FC13208F080E216
:1030200021E020936B0420936A043FEF30936904FE
:1030300010926804380F309367042093460420915F
:103040004604990F922B9093460490914504913039
:1030500061F410924504909146049093BB009091C6
:10306000BC0093FDF8CF95EC01C095EE9093BC00A9
:1030700090916B049130E1F390916804981710F4EB
:1030800080916804A7E4B4E0EBE6F3E090E09817E1
:1030900021F02D9121939F5FFACF109244049093D9
:1030A000430490E02091430480914404281771F078
:1030B000FF24F394F90E6801C90ED11C89E395E051
:1030C0000E94660BF60180839F2DECCF81E09C135C
:1030D00080E0CF911F910F91FF90EF90DF90CF9004
:1030E0000895CF93C42FFC0184A991E090936C04C0
:1030F00080938E0410926D0410928F0489E395E002
:103100000E94AF0B6C2F89E395E00E94AF0B81E02A
:103110000E94842581E0CF9108954F925F926F9233
:103120007F928F92AF92BF92CF92DF92EF920F93E6
:103130001F93CF93DF933C01EB010E940E10F3012C
:1031400027853089621B730B6A307105B0F3F894E0
:10315000E881F98175B1716065B16E7F65B9CA8426
:103160008F812C2D281B822F2F83BF844A805B8068
:103170001D850C85DE841F5F0F5FD3949E8138858B
:10318000A984EB844181D20120E0C32F522F322F3A
:103190003181442788943111380F08F43FEF81952D
:1031A000889410FD430F4795889411FD430F479570
:1031B000889412FD430F4795889413FD430F47955C
:1031C000889414FD430F4795889415FD430F479548
:1031D000889416FD430F4795889417FD430F479534
:1031E0008894232F1111242F8C0D422F002C75B998
:1031F00000C047FF65B930812227889400C000C015
:10320000002C65B93111390F00C0002C75B900C010
:1032100046FF65B908F43FEF9195889400C000C05F
:10322000002C65B900FD230F00C0002C75B900C04B
:1032300045FF65B92795889401FD230F00C000C0A4
:10324000002C65B92795889400C0002C75B900C082
:1032500044FF65B902FD230F2795889400C000C084
:10326000002C65B903FD230F00C0002C75B900C008
:1032700043FF65B92795889404FD230F00C000C063
:10328000002C65B92795889400C0002C75B900C042
:1032900042FF65B905FD230F2795889400C000C043
:1032A000002C65B906FD230F00C0002C75B900C0C5
:1032B00041FF65B92795889407FD230F00C000C022
:1032C000002C65B92795889400C0002C75B900C002
:1032D00040FF65B9432F0111422F9A0D00C000C075
:1032E000002C65B900C000C0002C75B900C047FFB4
:1032F00065B932812227889400C000C0002C65B9CE
:1033000031113C0F00C0002C75B900C046FF65B9F3
:1033100008F43FEFEB0DF11D00C000C0002C65B9B3
:10332000D0FC230F00C0002C75B900C045FF65B963
:1033300027958894D1FC230F00C000C0002C65B9EC
:103340002795889400C0002C75B900C044FF65B96A
:10335000D2FC230F2795889400C000C0002C65B9CB
:10336000D3FC230F00C0002C75B900C043FF65B922
:1033700027958894D4FC230F00C000C0002C65B9A9
:103380002795889400C0002C75B900C042FF65B92C
:10339000D5FC230F2795889400C000C0002C65B988
:1033A000D6FC230F00C0002C75B900C041FF65B9E1
:1033B00027958894D7FC230F00C000C0002C65B966
:1033C0002795889400C0002C75B900C040FF65B9EE
:1033D000432FD110422FC19500C000C0002C65B909
:1033E000CE0D00C000C075B900C047FF65B931817E
:1033F0002227889400C000C0002C65B93111380F15
:1034000000C0002C75B900C046FF65B908F43FEF55
:103410008195889400C000C0002C65B910FD230F71
:1034200000C0002C75B900C045FF65B92795889488
:1034300011FD230F00C000C0002C65B927958894AA
:1034400000C0002C75B900C044FF65B912FD230F00
:103450002795889400C000C0002C65B913FD230F88
:1034600000C0002C75B900C043FF65B9279588944A
:1034700014FD230F00C000C0002C65B92795889467
:1034800000C0002C75B900C042FF65B915FD230FBF
:103490002795889400C000C0002C65B916FD230F45
:1034A00000C0002C75B900C041FF65B9279588940C
:1034B00017FD230F00C000C0002C65B92795889424
:1034C00000C0002C75B900C040FF65B9432F111131
:1034D000422F8C0D00C000C0002C65B9119709F077
:1034E00086CE20EE31E0D2010E943732DC01CB01E2
:1034F000F4E0B695A79597958795FA95D1F720E0D2
:1035000030E0B901EAE94E9E040C611D5E9E600D3B
:10351000711D1124650D711D860F971FA11DB11D11
:10352000893E43E09407A105B10508F434C0885EE4
:103530009340A109B10942E0B695A7959795879563
:103540004A95D1F747E0849F080E211D949F200DD6
:10355000311D1124290F311D6091E10370E0860FA8
:10356000971F820F931F40918B0350918C036091A2
:103570008D0370918E03292F3327420F531F611D36
:10358000711D40938B0350938C0360938D03709354
:103590008E038093E10378940E940E10F301708BE8
:1035A0006787DF91CF911F910F91EF90DF90CF90C0
:1035B000BF90AF908F907F906F905F904F900895E5
:1035C0000F931F93CF93DF93EC018A81982F9295ED
:1035D000990F907E8E81880F880F892B0885082B84
:1035E0008A85982F9295990F907E8C85880F880FE9
:1035F000892B1E85182BE881F9810280F381E02D4B
:103600004C8162EFCE010995E881F9810280F38156
:10361000E02D402F64EFCE010995E881F981028009
:10362000F381E02D412F65EFCE01DF91CF911F9106
:103630000F910994FF920F931F93CF93DF931F92E3
:10364000CDB7DEB78C01DC01ED91FC910480F581F2
:10365000E02D21E0AE014F5F5F4F60ED099589815C
:10366000883541F0803671F420E630E0F80132AB65
:1036700021AB0DC028E530E0D801D2963C932E93C3
:10368000D19705C0F80112AA11AAF12C3EC0D801A9
:10369000D0968C93D097ED91FC910480F581E02D2C
:1036A00026E0A801405F5F4F68E8C8010995F82E41
:1036B000D801ED91FC910480F581E02D22E1A80173
:1036C0004A5E5F4F6EE8C8010995F822D801ED9176
:1036D000FC910480F581E02D21E0A801485D5F4F59
:1036E00061EAC8010995F822D801ED91FC910480A6
:1036F000F581E02D27E0A801475D5F4F61EEC8012D
:103700000995F822C8010E94E01AF801F3AA8F2D4A
:103710000F90DF91CF911F910F91FF900895CF925D
:10372000DF92EF92FF920F931F93CF93DF93DC0111
:1037300028E030E080E041E067E070E093E2C92EED
:10374000D12C0FEC10E05C911196ED91FC91129749
:10375000F8949181952B9183F280952F9095F92281
:10376000F282EB012197F1F7F1809F219183E6012D
:103770002197F1F790817894F8013197F1F795232B
:1037800009F0842B440F21503109E9F6DF91CF91E4
:103790001F910F91FF90EF90DF90CF900895DC0183
:1037A0002C911196ED91FC911297F8948181922FB2
:1037B00090958923818378948DE743E050E0815090
:1037C00021F1DA011197F1F730813223C1F3F89436
:1037D0008281892382838181822B81837894ABE7E4
:1037E000B7E01197F1F7F89481819823918383E1F1
:1037F00091E00197F1F78081282381E009F080E0D2
:103800007894E3E6F6E03197F1F708950C943030C0
:103810000F931F93CF93DF932091E2032F5F322FFB
:1038200037703093E20320FF02C020E801C020E09F
:1038300031FD2064347009F02062205FFC01EC014E
:10384000239600E011E06485662331F070E0C80142
:103850000E941B326F5F01C060E06187322F369F8C
:10386000030E30E0311D1124311102C0168202C056
:1038700031503683662311F0615061873196CE173F
:10388000DF0709F7DF91CF911F910F9108950E94F3
:103890008D350F931F93CF93DF93EC01888199812E
:1038A000009729F02A813B812617370788F48B017E
:1038B0006F5F7F4F0E94C734009761F099838883C0
:1038C0001B830A832C813D81232B11F4FC01108280
:1038D00081E001C080E0DF91CF911F910F910895A9
:1038E000EF92FF920F931F93CF93DF9361157105B2
:1038F00011F480E01CC041155105C1F07B01EC01C1
:103900008C819D818A01080F191FB801CE010E9488
:10391000491C882371F3288139818C819D81B701ED
:10392000820F931F0E949B351D830C8381E0DF91E2
:10393000CF911F910F91FF90EF900895CF93DF9358
:10394000EC0188819981009711F00E943E34198220
:1039500018821D821C821B821A82DF91CF910895EA
:10396000CF93DF93EC016115710561F0FB010190CC
:103970000020E9F73197AF01461B570B0E94701CDE
:10398000811103C0CE010E949E1CCE01DF91CF9118
:103990000895EF92FF920F931F93CF93DF93EC0163
:1039A0007B018A01BA010E94491C811104C0CE0129
:1039B0000E949E1C07C01D830C83B70188819981DA
:1039C0000E949B35CE01DF91CF911F910F91FF9007
:1039D000EF900895CF93DF93EC016115710559F0D5
:1039E000FB0101900020E9F73197AF01461B570B0F
:1039F0000E94C91C02C00E949E1CCE01DF91CF9183
:103A00000895FC01808191810C943E34FC01118267
:103A1000108213821282158214826115710551F091
:103A2000FB0101900020E9F73197AF01461B570BCE
:103A30000C94C91C08951F920F920FB60F92112477
:103A40002F933F934F935F936F937F938F939F93A6
:103A5000AF93BF93EF93FF938091E6039091E703B9
:103A6000A091E803B091E903892B8A2B8B2B59F1A4
:103A70009091E503E091E303F091E40380818927CD
:103A800080838091E6039091E703A091E803B091D1
:103A9000E903181619061A061B060CF03DC08091A2
:103AA000E6039091E703A091E803B091E903019741
:103AB000A109B1098093E6039093E703A093E8037B
:103AC000B093E90329C080910801E0E9F0E0E491B6
:103AD0009FEF90930801E130B9F098F0E230C9F41B
:103AE000909170009D7F9093700091E09093B00052
:103AF0009091B100987F94609093B1001092B300C0
:103B000008C010926E0005C090916F009D7F909349
:103B10006F0060E00E94CA0CFF91EF91BF91AF91DE
:103B20009F918F917F916F915F914F913F912F91D5
:103B30000F900FBE0F901F901895CF93DF931092A8
:103B400044041092430410926D0410928F0410925A
:103B50006B0481E080936A041092450461E082E185
:103B60000E94CA0C61E083E10E94CA0C8091B900F6
:103B70008E7F8093B9008091B9008D7F8093B900CA
:103B800088E48093B80085E48093BC0084E59BE0E2
:103B9000909342048093410485E59BE09093400418
:103BA00080933F0410926B0580917005823018F06D
:103BB00098E090936B0580936E0562E370E080E07F
:103BC00090E00E9433106091710586E695E00E94B6
:103BD000C31068EE73E080E090E00E94331060E371
:103BE00086E695E00E94D710CBE4D6E4CE0101979B
:103BF000F1F760E386E695E00E94D7102197F1F790
:103C000060E386E695E00E94D71083E592E0019795
:103C1000F1F760E286E695E00E94D71060916B05AF
:103C2000606240E086E695E00E94F01084E08093B8
:103C30006C0540E06CE086E695E00E94F0100E9482
:103C4000002682E080936D0540E066E086E695E020
:103C50000E94F01040E062E086E695E00E94F010DD
:103C60008BE39FE10197F1F7DF91CF910895CF9317
:103C7000DF93CDB7DEB728970FB6F894DEBF0FBE3F
:103C8000CDBF98E0ECE7F1E0DE01119601900D92D6
:103C90009A95E1F790916E05961710F46FEF690F02
:103CA000FE013196E60FF11DE60FF11D6081680FF0
:103CB000606840E086E695E028960FB6F894DEBF8F
:103CC0000FBECDBFDF91CF910C94F010FC01448169
:103CD00055816081718186E695E00C94ED09BF9273
:103CE000CF92DF92EF92FF920F931F93CF93DF93C8
:103CF000CDB7DEB76A970FB6F894DEBF0FBECDBF63
:103D0000F82E28E0629FC00111246AE070E00E9452
:103D10001B32862F6AE00E940F328C01C02ED12CFC
:103D200080910F010730D8F481114AC081E080935F
:103D30000F0188E0E4E8F1E0DE01519601900D9278
:103D40008A95E1F788E0ECE8F1E0DE011996019050
:103D50000D928A95E1F788E0E4E9F1E019C0882343
:103D600079F110920F0188E0ECE9F1E0DE01519663
:103D700001900D928A95E1F788E0E4EAF1E0DE0136
:103D8000199601900D928A95E1F788E0ECEAF1E04E
:103D9000DE01119601900D928A95E1F7BE016F5EEA
:103DA0007F4F83E00E94E025BE01675F7F4F84E084
:103DB0000E94E025BE016F5F7F4F85E00E94E025F5
:103DC0006F2D8CE00E94371E011122C0143010F4B8
:103DD00060E005C08CEF810F823090F463E086E6EE
:103DE00095E00E940711EE24E394F12C9EEFB92E8A
:103DF000B10E8CEF810F898F2AEF210F2A8F17C008
:103E00008AEF810F823010F464E0E9CF65E0E7CFFC
:103E10006FEFE5CFCE14DF0499F0CE14DF041CF170
:103E20002FEFE21AF20A87E0E816F10411F1EC1420
:103E3000FD0484F76FEF86E695E00E940711EACF54
:103E4000123088F081E08B1510F060E00DC0298DF4
:103E5000223010F463E008C08A8D823010F464E0F0
:103E600003C065E001C061E086E695E00E940711AD
:103E7000D7CF0730A9F4123010F462E014C08EEFEF
:103E8000810F823010F463E00EC08CEF810F82301E
:103E900010F464E008C01650123020F465E003C04E
:103EA000083059F76FEF86E695E00E9407116A9691
:103EB0000FB6F894DEBF0FBECDBFDF91CF911F913B
:103EC0000F91FF90EF90DF90CF90BF9008954F92A9
:103ED0005F926F927F928F929F92AF92BF92CF929A
:103EE000DF92EF92FF92CF936B017C019B01AC01BB
:103EF0000E94FA31882319F06DE073E027C0460173
:103F00005701E894B7F82FEF3FEF4FE75FE7C501A0
:103F1000B4010E94FA3181110DC02FEF3FEF4FE73E
:103F20005FE7C501B4010E940C2F18161CF461E173
:103F300073E00CC02FEF3FEF4FE75FE4C701B6011E
:103F40000E94F53118169CF465E173E086E695E071
:103F5000CF91FF90EF90DF90CF90BF90AF909F9068
:103F60008F907F906F905F904F900C94E90B2FEFA4
:103F70003FEF4FE75FECC701B6010E940C2F87FDB2
:103F8000E3CF20E030E0A901C701B6010E940C2F69
:103F900087FF0BC06DE286E695E00E94E20B5C01B4
:103FA000F7FAF094F7F8F09402C0A12CB12C2AE0B3
:103FB00037ED43EA5BE3C701B6010E94E1302B0114
:103FC0003C010E94C6316B017C010E94112F9B01B4
:103FD000AC01C301B2010E94E0302B013C012AE098
:103FE000B701A60186E695E00E94FE0B7C01EA0C73
:103FF000FB1C6EE286E695E00E94E20BE80EF91EDD
:10400000C3E0C15029F120E030E040E251E4C301B7
:10401000B2010E94722F2B013C010E94C6314B015C
:10402000A12CB12C2AE0B501A40186E695E00E94FE
:10403000FE0BE80EF91EC501B4010E94112F9B0171
:10404000AC01C301B2010E94E0302B013C01D9CF89
:10405000C701CF91FF90EF90DF90CF90BF90AF90CE
:104060009F908F907F906F905F904F900895CF9228
:10407000DF92EF92FF920F931F93CF93DF936B0129
:10408000770FEE08FF08F7FE1BC0EC016DE20E94FF
:10409000E20B8C0144275527BA014C195D096E09C2
:1040A0007F092AE0CE010E94FE0B800F911FDF9155
:1040B000CF911F910F91FF90EF90DF90CF900895D7
:1040C0002AE0B701A601DF91CF911F910F91FF90D8
:1040D000EF90DF90CF900C94FE0B80E480937C00F7
:1040E00080917A00806480937A0080917A0086FDC6
:1040F000FCCF809178002091790090E0922B089578
:10410000CF92DF92EF92FF920E946D10C090D30584
:10411000D090D405E090D505F090D6059B01AC0178
:104120002C193D094E095F0969017A018091CF057B
:1041300084FF81C08091DD050E94A10C9C0181E07B
:104140002115310509F080E09091CE0580FB90F9B2
:104150009093CE05232BF9F492FD1DC031E5C316D3
:10416000D104E104F104B8F09460977F9093CE05F8
:104170000E946D106093D3057093D4058093D5058C
:104180009093D6058091CE05806280688093CE059D
:10419000C12CD12C76018091CE0580FD27C082FFF5
:1041A00025C041E5C416D104E104F104F8F083FD13
:1041B00006C081FD04C0877F80648093CE05809116
:1041C000CE058B7F8093CE050E946D106093D30542
:1041D0007093D4058093D5059093D6058091CE0534
:1041E0008D7F8093CE05C12CD12C76018091CE0598
:1041F00082FF21C05DEBC51652E0D506E104F10453
:10420000D0F083FD18C080FF05C082608F7B809353
:10421000CE0511C08B7F8D7F8093CE050E946D10DF
:104220006093D3057093D4058093D5059093D605FC
:10423000C12CD12C76018091DB050E94A10C8093CA
:10424000D0058091DC050E94A10C880F991F9091E8
:10425000D005890F8093D0059091D105891709F475
:104260007AC022E0C216D104E104F10408F473C05C
:104270001092D205833051F4923011F481E003C0E2
:10428000913071F482E08093D2050AC0811108C098
:104290008091CF0583FD04C0913081F3923091F37A
:1042A0008091D205882309F443C08091CE058061B6
:1042B0008093CE050E946D10C090D705D090D80590
:1042C000E090D905F090DA05AB01BC014C195D090D
:1042D0006E097F098091CD05082E000C990BAA0B61
:1042E000BB0B481759076A077B0778F48091D20502
:1042F000813021F48091CF05826005C0823029F49D
:104300008091CF0581608093CF050E946D106093EE
:10431000D7057093D8058093D9059093DA058091DD
:10432000CE0580FF05C08091D2058E5F8093D205B7
:104330008091D0058093D1058091CE0588608093CF
:10434000CE050E946D106093D3057093D4058093C1
:10435000D5059093D605FF90EF90DF90CF9008950C
:104360004F925F926F927F928F929F92AF92BF9285
:10437000CF92DF92FF920F931F93CF93DF938C0125
:104380008090940590909505A0909605B090970523
:104390000E946D10681579058A059B0540F41092FE
:1043A000940510929505109296051092970520910C
:1043B0009205309193052115310519F40E945F276C
:1043C000B0C08091940590919505A0919605B0910B
:1043D00097050097A105B10589F34C015D01820E97
:1043E000931EA11CB11C0E946D10681579058A05E9
:1043F0009B0520F70E946D10809094059090950584
:10440000A0909605B0909705681979098A099B09CB
:1044100028EE33E040E050E00E94AF30C0918905C3
:10442000D0918A05C23009F0A0C18D2F90E0837031
:104430009927892B09F493C17CE1F72E809185059A
:1044400029013A01480E511C611C711CC301B201C3
:104450002CE3822E912CA12CB12CA50194010E9459
:10446000AF30609372058091860529013A01480EAC
:10447000511C611C711CC301B201A50194010E9471
:10448000AF30609373058091870559016A01A80ECA
:10449000B11CC11CD11CC601B50128E130E040E0CF
:1044A00050E00E94AF306093750580918B05820FBC
:1044B000873008F057C180937805809188052901DD
:1044C0003A01480E511C611C711CC301B2012F2D11
:1044D00030E02F5F3F4F032E000C440B550B0E9422
:1044E000AF30620F60937705CA01B9016C0F711D7F
:1044F000811D911D2DE030E040E050E00E94AF3082
:10450000620F60937905CA01B9016D0F711D811D9C
:10451000911D24E630E040E050E00E94AF3060930F
:104520007A0520917505822F6CE00E940F3291115F
:1045300001C09CE09093740581E02C3008F480E089
:1045400080937605F80101900020E9F73197CF01BB
:10455000801B910BC1E0C80FA0917F05B091800531
:1045600030E0432F50E04817590738F5FD0101901E
:104570000020E9F731975F01AA1ABB0A20E0400F3B
:10458000511F622F70E06A157B05A8F46A0F7B1F2C
:10459000FA01D081FB016081D6130BC0222349F0C0
:1045A0002A3010F4CF5F05C02C3010F4CE5F01C06C
:1045B000CD5F2F5FE6CF3F5FD4CF80917D05909197
:1045C0007E050E943E348C2F90E00E94A63390938B
:1045D0007E0580937D05C0E0D0E08D2F90E0F8014E
:1045E00001900020E9F73197E01BF10B8E179F0730
:1045F00008F09AC0F801E80FF91F8081E0917F056B
:10460000F09180059081891308C027E04C2F60E06D
:10461000809178050E940B2684C09181891307C080
:104620008091760528E04C2F62E0880F0AC09281C5
:1046300089130BC080917605880F28E04C2F62E02B
:104640008C5F0E940B26CE5F6DC09381891306C0DC
:1046500024E04C2F61E080917705F3CF948189139A
:1046600006C023E04C2F61E080917405EACF95816C
:10467000891306C023E04C2F61E080917505E1CFDE
:104680009681891306C022E04C2F61E0809173056A
:10469000D8CF9781891306C025E04C2F61E0809127
:1046A0007905CFCF9085891306C021E04C2F61E0BA
:1046B00080917205C6CF9185891306C026E04C2FE4
:1046C00061E080917A05BDCF9285891308C0809101
:1046D000790590E00696982F990F25E008C09385FC
:1046E00089130CC080917805982F990F27E04C2FE3
:1046F00063E0890F0E940B26CD5F14C09485891357
:1047000009C026E04C2F64E080917A050E940B26B8
:10471000CC5F08C0E0917D05F0917E05EC0FF11DA6
:104720008083CF5FDF5F59CFE0917D05F0917E05FB
:10473000EC0FF11D108280917D0590917E05DF9137
:10474000CF911F910F91FF90DF90CF90BF90AF90CE
:104750009F908F907F906F905F904F9008956DE144
:10476000F62E6CCE10927805A8CE81E090E0C8308D
:1047700010F480E090E08C0F911D817099279EE1EC
:10478000F92EF80E5BCE3F924F925F926F927F921E
:104790008F929F92AF92BF92CF92DF92EF92FF9251
:1047A0000F931F93CF93DF9300D01F92CDB7DEB747
:1047B000F82E8091480590914905A0914A05B09145
:1047C0004B05892B8A2B8B2BE9F00E940E10009150
:1047D00098041091990420919A0430919B04DC0173
:1047E000CB01801B910BA20BB30B009148051091DC
:1047F000490520914A0530914B0580179107A20782
:10480000B307B8F20E940E10609398047093990455
:1048100080939A0490939B04E0915005F091510588
:10482000309759F040914C0550914D0560914E05DF
:1048300070914F058F2D0995F82E009190041091DD
:1048400091044F2C512C612C712C0115110509F488
:104850005FC0D8011C96EC901C9780914605909102
:1048600047058436910510F41C961C92D801ED91F1
:10487000FC91A280B38019821A821B82F11014C0AD
:10488000F80145855685628173819E012F5F3F4FF8
:10489000C801F5010995D8011C96EC921C97149655
:1048A0000D911C911597D1CFF8013696CE01019646
:1048B0006C01480199E0890E911C2191222309F194
:1048C00032803320F1F0822F90E0A0E0B0E09C0134
:1048D000AD012F5F3F4F4F4F5F4FC301B2010E94A9
:1048E000FF319B01AC01832D90E0A0E0B0E0BC0162
:1048F000CD016F5F7F4F8F4F9F4F0E94FF31D601D9
:104900008C93BFEFCB1ADB0AE815F905B1F6B8CFE7
:1049100080919604909197048C010F5F1F4F109324
:1049200097040093960449979CF10E946D104B01E7
:104930005C0188EE93E0089FB001099F700D189FFD
:10494000700D1124072E000C880B990BC090920457
:10495000D0909304E0909404F0909504A501940104
:104960002C193D094E095F090E94AF30309347056D
:104970002093460510929704109296040E946D10A1
:10498000609392047093930480939404909395049D
:104990000F900F900F90DF91CF911F910F91FF908B
:1049A000EF90DF90CF90BF90AF909F908F907F90CF
:1049B0006F905F904F903F900895AF92BF92CF92CB
:1049C000DF92EF92FF920F931F93CF93DF93DC015F
:1049D00028E030E091E0AA24AA94B12C0FE010E086
:1049E00043E2E42EF12C57EDC52ED12C8C9111967B
:1049F000ED91FC911297482F4095562F592381F045
:104A0000F8945281452342834181482B4183E70139
:104A10002197F1F74281842B82837894F6010FC0AD
:104A2000F8945281452342834181482B4183E5011B
:104A30002197F1F74281842B82837894F801319792
:104A4000F1F7990F2150310989F6F8941196ED91FB
:104A5000FC91129791818C91809589238183119685
:104A6000ED91FC91129792818C918095892382839C
:104A70007894DF91CF911F910F91FF90EF90DF908D
:104A8000CF90BF90AF900895CF93DF93BC018CE996
:104A900094E00E94E90BEC016BE372E08CE994E096
:104AA0000E94E90B8C0F9D1FDF91CF9108950F930A
:104AB0001F93CF93DF93CDB7DEB729970FB6F89446
:104AC000DEBF0FBECDBF8C01862FF8011182108290
:104AD00013821282158214824AE0BE016F5F7F4FFB
:104AE00090E00E94E22EBE016F5F7F4FC8010E94DE
:104AF000EA1C29960FB6F894DEBF0FBECDBFDF913A
:104B0000CF911F910F910895282F30918F0431324A
:104B100008F04AC080916B048111FCCF90918E0403
:104B200042E040936B0420936A042FEF20936904C2
:104B30001092680430936704EEE6F4E0A7E4B4E072
:104B400020E0321721F041914D932F5FFACF109260
:104B5000460420914604990F922B9093460490911D
:104B60004504913061F4109245049091460490936D
:104B7000BB009091BC0093FDF8CF95EC01C095EE81
:104B80009093BC0090916B049230E1F39091690492
:104B90009F3F79F080916904803241F080916904EF
:104BA000803331F084E005C081E003C082E001C0C1
:104BB00083E010926D0410928F0410926C0408959B
:104BC0000F931F93CF93DF938B01877098E0899F9A
:104BD000B0011124606440E086E695E00E94F01088
:104BE000E801085F1F4F699186E695E00E94071172
:104BF000C017D107C1F7DF91CF911F910F91089591
:104C000040E061E086E695E00E94F0108BE39FE1D2
:104C10000197F1F70895AF92BF92CF92DF92EF9292
:104C2000FF920F931F93CF93DF93C82FD62F042F9C
:104C3000B22EA0908C050E946D10C0908D05D09072
:104C40008E05E0908F05F0909005A70196010E94D7
:104C5000AF30F694E794D794C7946C157D058E0514
:104C60009F0508F445C011E0AB1010E0D23009F404
:104C700042C028F4DD2351F0D13011F115C1D330F9
:104C800009F467C0D43009F4B1C00EC1E0917D05CC
:104C9000F0917E05E00FF11DAB1429F0C73008F04C
:104CA000C6E0C05D01C0C0E2C083FEC0D33008F0E2
:104CB0004CC0DD2309F4EEC0D13009F0F5C010E09E
:104CC000C43608F0C3E6202F30E0E0917D05F09176
:104CD0007E05E20FF31F111106C08C2F6AE00E94BF
:104CE0000F32805D01C080E280832F5F3F4FC1C0E3
:104CF000D230E1F610E0C73008F0C6E0202F30E0F7
:104D0000E0917D05F0917E05E20FF31F111108C0BF
:104D1000A0918105B0918205AC0FB11D8C9101C0AD
:104D200080E280832F5F3F4FE0917D05F0917E050B
:104D3000E20FF31F111153C0A0918105B0918205BC
:104D4000AC0FB11D11968C914BC0D33009F04AC005
:104D500010E0C73308F0C6E3E02FF0E0A0917D0536
:104D6000B0917E059D012E0F3F1F111109C080914A
:104D70008305909184058C0F911DDC018C9101C0FD
:104D800080E2D9018C93A0917D05B0917E05CF0181
:104D900001969D01280F391F11110AC080918305CA
:104DA000909184058C0F911DDC0111968C9101C0AE
:104DB00080E2D9018C939F012E5F3F4FE0917D05EA
:104DC000F0917E05E20FF31F111109C0A091830538
:104DD000B0918405AC0FB11D12968C9101C080E298
:104DE000808362C0D43009F05FC010E0C43608F0A0
:104DF000C3E6202F30E0E0917D05F0917E05E20FC3
:104E0000F31F11110AC08091910590E001976AE0AB
:104E100070E00E941B32605D01C060E26083E0913F
:104E20007D05F0917E05C9010196E80FF91F11116A
:104E30000AC08091910590E001976AE070E00E94BD
:104E40001B32805D01C080E28083E0917D05F0919E
:104E50007E05C9010296E80FF91F111106C08C2FBB
:104E60006AE00E940F32805D01C080E280832D5F86
:104E70003F4FE0917D05F0917E05E20FF31F111188
:104E800006C08C2F6AE00E940F32905D01C090E254
:104E900090830AC0C73008F0C6E0E0917D05F0912C
:104EA0007E05E00FF11DFDCEDF91CF911F910F9197
:104EB000FF90EF90DF90CF90BF90AF900895CF9389
:104EC000DF93C2E7D5E089859A85DC01ED91FC91FD
:104ED0000280F381E02D60E00995982F96959695D4
:104EE00096959E71292F220F220F920F8F70890F96
:104EF0008B8B888389859A85DC01ED91FC910280FA
:104F0000F381E02D61E00995982F969596959695F9
:104F10009E71292F220F220F920F8F70890F8C8B79
:104F2000898389859A85DC01ED91FC910280F3816A
:104F3000E02D62E00995982F9695969596959E712D
:104F4000292F220F220F920F8F70890F8D8B8B8349
:104F500089859A85DC01ED91FC910280F381E02D39
:104F600063E00995982F9695969596959E71292FB1
:104F7000220F220F920F8F70890F8E8B8D83898560
:104F80009A85DC01ED91FC910280F381E02D64E0D3
:104F90000995982F9695969596959E71292F220F93
:104FA000220F920F8F70890F8F8B8F8389859A853F
:104FB000DC01ED91FC910280F381E02D65E0099523
:104FC000982F9695969596959E71292F220F220FD0
:104FD000920F8F70890F888F888789859A85DC0169
:104FE000ED91FC910280F381E02D66E00995982F08
:104FF0009695969596959E71292F220F220F920FC6
:105000008F708150890F898F8E830E946D106AA3E3
:105010007BA38CA39DA3DF91CF9108950F931F9342
:10502000CF93DF93CDB7DEB762970FB6F894DEBFAC
:105030000FBECDBF8C01F901DC011C968C917A83E7
:1050400069835C834B835E834D8390819D879181CF
:105050009E8792819F87813029F4CE0101960E941C
:10506000081C06C01C861B861A86198618861F8295
:10507000188A1A8A198AD801ED91FC910484F58561
:10508000E02DBE016F5F7F4FC801099562960FB694
:10509000F894DEBF0FBECDBFDF91CF911F910F916E
:1050A00008950F931F93CF93DF93CDB7DEB7629729
:1050B0000FB6F894DEBF0FBECDBF8C01F901DC0145
:1050C0001C968C917A8369835C834B835E834D83CA
:1050D00090819D8791819E8792819F87813029F45D
:1050E000CE0101960E94081C06C01C861B861A86EB
:1050F000198618861F8283E0888B1A8A198AD8013C
:10510000ED91FC910484F585E02DBE016F5F7F4F2A
:10511000C801099562960FB6F894DEBF0FBECDBFE9
:10512000DF91CF911F910F91089582E595E00C9446
:10513000011DCF93DF93CDB7DEB76C970FB6F89410
:10514000DEBF0FBECDBF789484B5826084BD84B5C8
:10515000816084BD85B5826085BD85B5816085BD72
:1051600080916E00816080936E001092810080912A
:1051700081008260809381008091810081608093B2
:105180008100809180008160809380008091B100D7
:1051900084608093B1008091B00081608093B00002
:1051A00080917A00846080937A0080917A00826096
:1051B00080937A0080917A00816080937A00809158
:1051C0007A00806880937A001092C10086E290E0B5
:1051D0000E94061C082F85E290E00E94061C182FF2
:1051E00084E290E00E94061CF894109280001092D5
:1051F000810028E03DE3309389002093880090915E
:105200008100986090938100002329F090918100A3
:10521000916090938100112329F090918100926018
:1052200090938100882329F080918100846080938D
:10523000810080916F00826080936F0078940E945B
:105240009D1D88E08093710560E086E695E00E94F0
:10525000C31060E086E00E94371E69EA72E086E6CD
:1052600095E00E94470C61E080E00E94371E63EBEE
:1052700072E086E695E00E94470C68EE73E080E0FD
:1052800090E00E94331061E080E00E94371E6EEBD8
:1052900072E086E695E00E94470C62E080E00E94A2
:1052A000371E62ED72E086E695E00E94470C63E0EF
:1052B00080E00E94371ECE0101960E941317CE0196
:1052C00001960E94661ECE0101960E94011D68EEA5
:1052D00073E080E090E00E943310E091AC04F09124
:1052E000AD0482E08083E091A804F091A9041082CB
:1052F000E091AA04F091AB048FEC80831092B40487
:10530000E091B004F091B10486E08083E091AE04B6
:10531000F091AF04808180618083E091AE04F091D0
:10532000AF04808188608083E091AE04F091AF0487
:10533000808180688083E091AE04F091AF04808129
:105340008F7D80838091CF0588608093CF0580E238
:1053500090E00E94061C61E00E94F90C80913704E5
:10536000811145C010922904109228048FEF809378
:105370002C0480932D0480932E0480932F0480931B
:1053800030048093310481E080933204109234041D
:105390001092330410922B0410922A0480919004EE
:1053A00090919104892B31F486E294E090939104DA
:1053B00080939004E0912404F0912504309721F02B
:1053C00086E294E09583848386E294E090932504BA
:1053D0008093240410923604109235048EE691E0F6
:1053E000909327048093260481E080933704209AC9
:1053F0008AEE93E090932904809328048FE090E054
:10540000909334048093330480914805909149052A
:10541000A0914A05B0914B05843C29E09207A10573
:10542000B10520F484EC99E0A0E0B0E08093480559
:1054300090934905A0934A05B0934B0580917B0555
:1054400090917C05DC01ED91FC910190F081E02DC3
:1054500009958DE392E00E94B02188E995E00E94D1
:105460001A1B0E940E1680EE92E00E94B021BC0131
:1054700082E595E00E94EA1C0E949D1D60E084E0A8
:105480000E94371E6AEE72E086E695E00E94470CA5
:10549000C12CD12C76013AE0832E912CA12CB12C79
:1054A00086012601370188E090E00E94061CBFEFCC
:1054B000CB1ADB0AEB0AFB0A282F30E0AEEFB0E094
:1054C0000E94D130A50194010E9446304216530635
:1054D0006406750674F486E090E00E94061CB8012C
:1054E0000E94AF0F6FE070E080E090E00E94331008
:1054F000D7CF0E949B1663E080E00E94371E6AEFC0
:1055000072E086E695E00E94470C0E949D1D80EDAA
:10551000C82E87E0D82EE12CF12C18E094EF892ECC
:1055200099249394A12CB12C28E8422E23E1522EE9
:10553000612C712C0E94802061E08CE00E94CA0CDA
:105540000E946D10A70196010E94AF30643671056C
:105550008105910539F41093710560E086E695E0C8
:105560000E94C3100E946D10A50194010E94AF30EB
:10557000672B682B692B11F40E948E000E946D101E
:10558000A70196010E94AF30672B682B692BB9F4F5
:105590008EE0E8E5F5E0DE011F9601900D928A9518
:1055A000E1F7CE010F960E94CF1B6CECCE010F9657
:1055B0000E94DD2464E4CE010F960E94DD240E9447
:1055C0006D10A70196010E94AF30683E73408105BF
:1055D0009105B9F58EE0E8E5F5E0DE011196019060
:1055E0000D928A95E1F7CE0101960E94CF1B6CECDB
:1055F000CE0101960E94DD246EEBCE0101960E9441
:10560000DD24CE0101960E948F1B082FCE0101964A
:105610000E948F1B602F70E0782B072E000C880BE8
:10562000990B0E94132F20E030E040E85DE30E94D8
:10563000722F60932004709321048093220490932E
:1056400023040E946D10A70196010E94AF30603BB9
:1056500074408105910501F520910B0130910C01F9
:1056600040910D0150910E01609120047091210430
:1056700080912204909123040E94E13020E030E0E8
:1056800040E05FE30E94722F60931C0470931D043E
:1056900080931E0490931F040E946D10A301920139
:1056A0000E94AF30672B682B692B49F480EE92E0A3
:1056B0000E94B021BC0182E595E00E94EA1C809125
:1056C000CF0582FD0E9480208091CE0584FF18C006
:1056D0008F7E8093CE0581E080931B0460E08CE098
:1056E0000E94CA0C24E130E040E050E064EF71E039
:1056F00082E00E94350D80911A0481110E948E0073
:105700008091CF0582FD0E9480208091D205823059
:1057100021F51092D20580E290E00E94071624E164
:1057200030E040E050E06CED75E00E94350D81E026
:1057300093E00E94442580911804909119040196E9
:10574000909319048093180480911704882329F0FA
:1057500080910A018F5F80930A018091CF0582FDBD
:105760000E9480208091D205813021F51092D205CF
:1057700080E290E00E94071624E130E040E050E033
:1057800064E175E00E94350D83E093E00E944425BA
:1057900080911804909119040197909319048093B3
:1057A000180480911704882329F080910A01815000
:1057B00080930A018091CF0582FD0E948020809114
:1057C000D2058430B9F41092D20580E290E00E94B4
:1057D000071628E230E040E050E064EF71E00E94FC
:1057E000350D85E093E00E944425809109018F5F8B
:1057F000809309018091CF0582FD0E9480208091D5
:10580000D2058330E1F41092D20580E290E00E944C
:10581000071628E230E040E050E060E971E00E94C5
:10582000350D88E093E00E94442580910901815064
:1058300087FD03C08093090102C010920901809185
:10584000CF0582FD0E9480208091CE0585FF1DC07E
:105850008F7D8093CE0580E290E00E94071624E1C0
:1058600030E040E050E060ED77E00E94350D8BE0E5
:1058700093E00E94442580911A04811106C0909102
:10588000170481E08927809317048091CF0582FD5A
:105890000E9480208091CE0586FF22C08F7B80935E
:1058A000CE0580E290E00E94071624E130E040E05F
:1058B00050E068E978E00E94350D81E093E00E94B5
:1058C00044250E94002680911A04882349F0809183
:1058D000090160911804082E000C990B0E943830C1
:1058E0008091CF0582FD0E9480208091CE0581FFAE
:1058F0001DC087FF1BC08F778093CE0580E290E0AC
:105900000E9407162CE330E040E050E06CED75E0BB
:105910000E94350D89E093E00E9444250E940026F4
:1059200090911A0481E0892780931A040E94EF0A5B
:1059300001CECF93DF9310929F0410929E0488EEC5
:1059400093E0A0E0B0E08093A0049093A104A09322
:10595000A204B093A30426EC31E030939D0420937D
:105960009C0425EC30E03093A9042093A80424EC97
:1059700030E03093AB042093AA0420EC30E0309365
:10598000AD042093AC0421EC30E03093AF042093BD
:10599000AE0422EC30E03093B1042093B00426EC46
:1059A00030E03093B3042093B2041092B504109207
:1059B000B6041092B7041092B80410923C051092ED
:1059C0003B0580933D0590933E05A0933F05B09322
:1059D000400588ED91E090933A05809339058FEF6B
:1059E0008093450510924705109246051092510587
:1059F000109250058FEF9FEFDC0180934C05909340
:105A00004D05A0934E05B0934F0587E190E00E94AD
:105A1000061CC82F86E190E00E94061CD82F85E165
:105A200090E00E94061C92E39093CD051092D3055E
:105A30001092D4051092D5051092D6058093DB05FF
:105A4000D093DC05C093DD059091CF0590619093D4
:105A5000CF0560E00E94F90C60E08091DC050E94B7
:105A6000F90C8091CF0584FF05C062E08091DD05CF
:105A70000E94F90C8091DB050E94A10C8093D00557
:105A80008091DC050E94A10C880F991F9091D00590
:105A9000890F8093D0058093D10581E090E09093A9
:105AA0009B0580939A0590939D0580939C05909308
:105AB0009F0580939E059093A1058093A00585E0A6
:105AC00090E09093A3058093A2051092A5051092F3
:105AD000A4051092A7051092A6051092CB058CE2A2
